:020000040800F2
:10000000005000206D190008F5160008FB160008C6
:1000100001170008071700080D170008000000006E
:10002000000000000000000000000000131700089E
:100030001F170008000000002B17000837170008E2
:10004000B5190008B5190008B5190008B519000858
:10005000B5190008B5190008B5190008B519000848
:10006000B5190008B5190008B519000845170008AA
:10007000B5190008B5190008B5190008B519000828
:10008000B5190008B5190008B5190008B519000818
:1000900059170008B5190008B5190008B519000866
:1000A000B5190008B5190008B5190008B5190008F8
:1000B000B5190008B51900086D170008B519000832
:1000C000B5190008B5190008B5190008B5190008D8
:1000D000B5190008B5190008B5190008B5190008C8
:1000E000B5190008B5190008B5190008000000008E
:1000F0000000000000000000000000000000000000
:0C01000000000000000000005FF808F1A3
:1001100010B5054C237833B9044B13B10448AFF341
:1001200000800123237010BD0402002000000000A5
:1001300034C1000808B5034B1BB103490348AFF3B2
:10014000008008BD000000000802002034C1000843
:1001500081F0004102E000BF83F0004330B54FEA78
:1001600041044FEA430594EA050F08BF90EA020FE5
:100170001FBF54EA000C55EA020C7FEA645C7FEA78
:10018000655C00F0E2804FEA5454D4EB5555B8BF9B
:100190006D420CDD2C4480EA020281EA030382EA0C
:1001A000000083EA010180EA020281EA0303362D9E
:1001B00088BF30BD11F0004F4FEA01314FF4801C71
:1001C0004CEA113102D0404261EB410113F0004F83
:1001D0004FEA03334CEA133302D0524263EB43033A
:1001E00094EA050F00F0A780A4F10104D5F1200ED8
:1001F0000DDB02FA0EFC22FA05F2801841F1000133
:1002000003FA0EF2801843FA05F359410EE0A5F106
:1002100020050EF1200E012A03FA0EFC28BF4CF037
:10022000020C43FA05F3C01851EBE37101F00045ED
:1002300007D54FF0000EDCF1000C7EEB00006EEBFA
:100240000101B1F5801F1BD3B1F5001F0CD3490884
:100250005FEA30004FEA3C0C04F101044FEA4452DB
:1002600012F5800F80F09A80BCF1004F08BF5FEA62
:10027000500C50F1000041EB045141EA050130BD42
:100280005FEA4C0C404141EB0101013C28BFB1F554
:10029000801FE9D291F0000F04BF01460020B1FA9F
:1002A00081F308BF2033A3F10B03B3F120020CDA72
:1002B0000C3208DD02F1140CC2F10C0201FA0CF050
:1002C00021FA02F10CE002F11402D8BFC2F1200CB5
:1002D00001FA02F120FA0CFCDCBF41EA0C0190406B
:1002E000E41AA2BF01EB0451294330BD6FEA0404B4
:1002F0001F3C1CDA0C340EDC04F11404C4F120029F
:1003000020FA04F001FA02F340EA030021FA04F3B0
:1003100045EA030130BDC4F10C04C4F1200220FA07
:1003200002F001FA04F340EA0300294630BD21FA45
:1003300004F0294630BD94F0000F83F4801306BF0B
:1003400081F480110134013D4EE77FEA645C18BFFF
:100350007FEA655C29D094EA050F08BF90EA020F96
:1003600005D054EA000C04BF1946104630BD91EA8E
:10037000030F1EBF0021002030BD5FEA545C05D191
:100380004000494128BF41F0004130BD14F58004D0
:100390003CBF01F5801130BD01F0004545F0FE4144
:1003A00041F470014FF0000030BD7FEA645C1ABF79
:1003B000194610467FEA655C1CBF0B46024650EAB0
:1003C000013406BF52EA033591EA030F41F40021DC
:1003D00030BD00BF90F0000F04BF0021704730B562
:1003E0004FF4806404F132044FF000054FF0000137
:1003F00050E700BF90F0000F04BF0021704730B5F8
:100400004FF4806404F1320410F0004548BF4042CC
:100410004FF000013EE700BF42004FEAE2014FEA21
:1004200031014FEA02701FBF12F07F4393F07F4FFC
:1004300081F06051704732F07F4208BF704793F0FF
:100440007F4F04BF41F40021704730B54FF4607412
:1004500001F0004521F000411CE700BF50EA010215
:1004600008BF704730B54FF000050AE050EA0102BE
:1004700008BF704730B511F0004502D5404261EB2E
:1004800041014FF4806404F132045FEA915C3FF46F
:10049000D8AE4FF003025FEADC0C18BF03325FEA0C
:1004A000DC0C18BF033202EBDC02C2F1200300FABD
:1004B00003FC20FA02F001FA03FE40EA0E0021FAE2
:1004C00002F11444BDE600BF70B54FF0FF0C4CF4D0
:1004D000E06C1CEA11541DBF1CEA135594EA0C0F82
:1004E00095EA0C0F00F0DEF82C4481EA030621EABD
:1004F0004C5123EA4C5350EA013518BF52EA0335F8
:1005000041F4801143F4801338D0A0FB02CE4FF0A9
:100510000005E1FB02E506F00042E0FB03E54FF0D9
:100520000006E1FB03569CF0000F18BF4EF0010ED1
:10053000A4F1FF04B6F5007F64F5407404D25FEACD
:100540004E0E6D4146EB060642EAC62141EA555180
:100550004FEAC52040EA5E504FEACE2EB4F1FD0CC2
:1005600088BFBCF5E06F1ED8BEF1004F08BF5FEA40
:10057000500E50F1000041EB045170BD06F00046F2
:1005800046EA010140EA020081EA0301B4EB5C049F
:10059000C2BFD4EB0C0541EA045170BD41F4801197
:1005A0004FF0000E013C00F3AB8014F1360FDEBFBC
:1005B000002001F0004170BDC4F10004203C35DA98
:1005C0000C341BDC04F11404C4F1200500FA05F31B
:1005D00020FA04F001FA05F240EA020001F00042BC
:1005E00021F0004110EBD37021FA04F642EB060132
:1005F0005EEA430E08BF20EAD37070BDC4F10C045C
:10060000C4F1200500FA04F320FA05F001FA04F21F
:1006100040EA020001F0004110EBD37041F100010B
:100620005EEA430E08BF20EAD37070BDC4F1200516
:1006300000FA05F24EEA020E20FA04F301FA05F27E
:1006400043EA020321FA04F001F0004121FA04F226
:1006500020EA020000EBD3705EEA430E08BF20EAF6
:10066000D37070BD94F0000F0FD101F00046400030
:1006700041EB010111F4801F08BF013CF7D041EAB2
:10068000060195F0000F18BF704703F000465200B6
:1006900043EB030313F4801F08BF013DF7D043EA87
:1006A0000603704794EA0C0F0CEA135518BF95EA3D
:1006B0000C0F0CD050EA410618BF52EA4306D1D1C4
:1006C00081EA030101F000414FF0000070BD50EAE3
:1006D000410606BF1046194652EA430619D094EA6D
:1006E0000C0F02D150EA013613D195EA0C0F05D157
:1006F00052EA03361CBF104619460AD181EA0301AB
:1007000001F0004141F0FE4141F470014FF0000062
:1007100070BD41F0FE4141F4780170BD70B54FF0FD
:10072000FF0C4CF4E06C1CEA11541DBF1CEA13557D
:1007300094EA0C0F95EA0C0F00F0A7F8A4EB05045F
:1007400081EA030E52EA03354FEA013100F0888056
:100750004FEA03334FF0805545EA131343EA12631F
:100760004FEA022245EA111545EA10654FEA0026D4
:100770000EF000419D4208BF964244F1FD0404F58D
:10078000407402D25B084FEA3202B61A65EB0305E9
:100790005B084FEA32024FF480104FF4002CB6EBA6
:1007A000020E75EB030E22BFB61A754640EA0C0026
:1007B0005B084FEA3202B6EB020E75EB030E22BF66
:1007C000B61A754640EA5C005B084FEA3202B6EBA7
:1007D000020E75EB030E22BFB61A754640EA9C0066
:1007E0005B084FEA3202B6EB020E75EB030E22BF36
:1007F000B61A754640EADC0055EA060E18D04FEAF4
:10080000051545EA16754FEA06164FEAC30343EA93
:1008100052734FEAC2025FEA1C1CC0D111F4801F60
:100820000BD141EA00014FF000004FF0004CB6E759
:1008300011F4801F04BF01430020B4F1FD0C88BFF8
:10084000BCF5E06F3FF6AFAEB5EB030C04BFB6EB03
:10085000020C5FEA500C50F1000041EB045170BDF6
:100860000EF0004E4EEA113114EB5C04C2BFD4EB23
:100870000C0541EA045170BD41F480114FF0000EA7
:10088000013C90E645EA060E8DE60CEA135594EA23
:100890000C0F08BF95EA0C0F3FF43BAF94EA0C0F26
:1008A0000AD150EA01347FF434AF95EA0C0F7FF49B
:1008B00025AF104619462CE795EA0C0F06D152EAEF
:1008C00003353FF4FDAE1046194622E750EA4106D3
:1008D00018BF52EA43067FF4C5AE50EA41047FF4E4
:1008E0000DAF52EA43057FF4EBAE12E74A0011D296
:1008F00012F5001211D20DD56FF47873B3EB62527A
:100900000ED44FEAC12343F0004343EA505323FA85
:1009100002F070474FF00000704750EA013002D1FA
:100920004FF0FF3070474FF00000704780B582B045
:1009300000AF7860504B1B880133504A82FB031292
:100940009111DA178A1A4FF47A7101FB02F29A1A9E
:1009500092B2494B1A80032249494A4801F08AF968
:10096000494B1B88002B05D0474B1B88013B9AB293
:10097000454B1A80454B1B88002B06D0434B1B88E8
:10098000013B9AB2414B1A8061E0414B1B78012B2D
:1009900012D14FF480513F4802F082F90346002BF8
:1009A0000AD13B4B00221A70384BC8221A80364BB2
:1009B0004FF47A721A804AE0354B1B78002B46D1EF
:1009C0004FF48051334802F06BF90346012B3ED1BE
:1009D0002F4B01221A702D4BC8221A802A4B1B88DC
:1009E000002B1AD02C4B9B785A1C2C4B83FB0231CA
:1009F000D317C91A0B465B000B44D11ACAB2264B57
:100A00009A70254B9B780133DBB21946002000F029
:100A10000FFD234B01221A7019E01F4B5B785A1C03
:100A20001E4B83FB0231D317C91A0B465B000B44E4
:100A3000D11ACAB2184B5A70174B5B780133DBB22C
:100A40001946012000F0F4FC154B01221A700A4BE4
:100A500019880A4BA3FB0123DA0813465B019B1A92
:100A60009B001344CB1A9BB2002B01D100F0FAFC7F
:100A700000BF0837BD4680BD60110020D34D621015
:100A80005403002020020020621100206411002085
:100A900000000020000C0140300300205655555541
:100AA000500300200000000080B584B000AF7860E3
:100AB0000023FB60984B1B881946984B5888984A2E
:100AC0000B465B000B445B00134402461A80924BBA
:100AD0001B881946914B9888914A0B465B000B4442
:100AE0005B001344023302461A808B4B1B88194665
:100AF0008A4B18888A4A0B465B000B445B00134400
:100B0000043302461A80854B1B88B3F5FA6F1BD25B
:100B1000824B1B881846FFF76DFC7BA3D3E90023AB
:100B2000FFF7D2FC02460B461046194678A3D3E9DC
:100B30000023FFF7F3FD02460B4610461946FFF768
:100B4000D5FE0346FB6032E0744B9B88B3F5FA6F29
:100B50001BD2724B9B881846FFF74CFC6AA3D3E963
:100B60000023FFF7B1FC02460B46104619464FF032
:100B700000026C4BFFF7D2FD02460B4610461946A9
:100B8000FFF7B4FE0346FB6011E0644B5B88184638
:100B9000FFF730FC5CA3D3E90023FFF795FC024686
:100BA0000B4610461946FFF7A1FE0346FB605E4B5D
:100BB0001B88002B06D1584B1B8819465B4B002223
:100BC00043F821205A4B9B78002B15D1524B1B88A0
:100BD0001946564AFB6842F82130534B00221A80CE
:100BE0004D4B1B8801335A42DBB2D2B258BF53423D
:100BF0009AB2494B1A8083E04D4B9B78012B3ED132
:100C0000454B1B881A46494B53F82220424B1B8800
:100C10001946FB681344454A42F82130424B1B8871
:100C20005A1C444B83FB02139910D317C91A0B4665
:100C30009B000B445B00D11A8AB23B4B1A803A4BA3
:100C40001B88002B5CD1344B1B881A46374B53F85A
:100C50002230314A12881146374AA2FB0323DB08AF
:100C6000324A42F821302C4B1B8801335A42DBB206
:100C7000D2B258BF53429AB2274B1A8040E02C4B55
:100C80009B78022B3CD1244B1B881A46274B53F8E8
:100C90002220214B1B881946FB681344234A42F843
:100CA0002130214B1B880133244A82FB031251114E
:100CB000DA178A1A642101FB02F29A1A92B21A4BCD
:100CC0001A80194B1B88002B1AD1134B1B881A460C
:100CD000164B53F82230104A12881146174AA2FBCD
:100CE00003235B09114A42F821300B4B1B88013367
:100CF0005A42DBB2D2B258BF53429AB2064B1A8064
:100D000000BF1037BD4680BD9B9141EEE22E894069
:100D100000000000007078405C0D002054030020AB
:100D20005C03002000004440661100205C090020A4
:100D30003003002067666666CDCCCCCC1F85EB51B6
:100D4000B0B588B002AF00F037FE00F04DF900F00A
:100D50009FFA00F003FA00F07DFA0AF08DF800F037
:100D6000A1F900F029FA954800F080FD934B1B781B
:100D70005A2B04D000F0A1FD904800F077FD8F4B76
:100D80009B780133DBB21946002000F051FB8B4BFE
:100D90005B780133DBB21946012000F049FB88483B
:100DA00001F052FA874805F081FB874B1B78002B36
:100DB00005D0854B00221A70804800F071FD834BEE
:100DC0001A88834B1B889A42EFD00023FB82322380
:100DD000BB827A4B5B78002B2BD11FE0FB8A7D4ACC
:100DE00013447A4A128811467B4A52F821207B49E3
:100DF00018460AF021FE03469AB2FB8A1344FB828E
:100E0000724B1B8801335A42DBB2D2B258BF5342F5
:100E10009AB26E4B1A80BB8A013BBB826B4B1A881D
:100E20006B4B1B889A4200F0B280BB8A002BD5D155
:100E3000ADE0624B5B78012B48D13DE0FB8A654A0F
:100E40009818624B1B881946654A0B465B000B4499
:100E50005B0013441B881C465C4B1B881946604A88
:100E60000B465B000B445B00134402331B881D469A
:100E7000564B1B8819465A4A0B465B000B445B00D5
:100E8000134404331B8800932B46224655490AF02D
:100E9000D3FD03469AB2FB8A1344FB824B4B1B885B
:100EA00001335A42DBB2D2B258BF53429AB2474BD7
:100EB0001A80BB8A013BBB82444B1A88444B1B8877
:100EC0009A4264D0BB8A002BB8D160E03B4B5B7880
:100ED000022B5CD152E00023FB7429E03B4B1B88C2
:100EE0001846FA7C3E4903465B000344134431F83C
:100EF00013301B0A9AB2FB7C5B00D2B218333B441E
:100F000003F8102C314B1B881846FA7C34490346F1
:100F10005B000344134431F81320FB7C5B00013376
:100F2000D2B218333B4403F8102CFB7C0133FB7422
:100F3000FB7C022BD2D900237B6007F108013B1D0B
:100F40000622184600F001FA0346FB827B68FA8A03
:100F5000194620480AF066FC7B6818460AF05AFCDD
:100F60001A4B1B8801335A42DBB2D2B258BF5342EC
:100F70009AB2164B1A80BB8A013BBB82134B1A886C
:100F8000134B1B889A4202D0BB8A002BA3D10A23A1
:100F90003B8205E0012000F071FD3B8A013B3B8272
:100FA000FB8A19460B480AF025F80346012B7FF40B
:100FB000FCAE3B8A002BEDD1F7E600BF30030020EA
:100FC00020020020E8020020500300205E0D0020D7
:100FD0005C0D0020600D00205C0900204CC1000861
:100FE0005C03002054C1000880B594B000AF07F145
:100FF00028032822002118460AF022FC07F11403D6
:1010000000221A605A609A60DA601A613B1D002261
:101010001A605A609A60DA600123BB624FF4803331
:10102000FB624FF400333B630123BB6302237B6409
:101030004FF48033BB644FF4E013FB6407F12803E3
:10104000184604F04FFC0346002B01D000F078F95D
:101050000F237B610223BB610023FB614FF480639C
:101060003B6200237B6207F114030221184604F05F
:10107000BBFE0346002B01D000F062F912237B6017
:101080004FF40043FB6000233B613B1D184605F015
:1010900045F80346002B01D000F052F900BF50374D
:1010A000BD4680BD80B584B000AF3B1D00221A60F4
:1010B0005A609A60274B284A1A60264B4FF4807278
:1010C0009A60244B00221A73224B00221A75214B7E
:1010D0004FF46022DA611F4B00225A601D4B03223D
:1010E0001A611C4800F0EEFC0346002B01D000F012
:1010F00027F900237B600123BB600623FB603B1DB7
:101100001946144800F0A6FE0346002B01D000F05B
:1011100017F901237B600223BB603B1D19460D4874
:1011200000F098FE0346002B01D000F009F90223DD
:101130007B600323BB603B1D1946064800F08AFE16
:101140000346002B01D000F0FBF800BF1037BD466E
:1011500080BD00BF200200200024014080B500AF08
:10116000124B134A1A60114B124A5A600F4B00225D
:101170009A600E4B0022DA600C4B4FF480421A61E9
:101180000A4B00225A61094B00229A61074B002248
:10119000DA61064B00221A62044801F0B1FD0346F1
:1011A000002B01D000F0CCF800BF80BD94020020DD
:1011B00000540040A086010080B586B000AF07F162
:1011C000080300221A605A609A60DA603B460022E7
:1011D0001A605A601D4B1E4A1A601C4B40F2CF2207
:1011E0005A601A4B00229A60184B6322DA60174B40
:1011F00000221A61154B00229A61144805F006F985
:101200000346002B01D000F09BF84FF48053BB60E5
:1012100007F1080319460D4805F0A2FA0346002B12
:1012200001D000F08DF800233B6000237B603B463B
:101230001946064805F074FC0346002B01D000F067
:101240007FF800BF1837BD4680BD00BFE802002010
:101250000008004080B582B000AF0C4B5B690B4AC0
:1012600043F001035361094B5B6903F001037B60A9
:101270007B68002200210B2001F069F90B2001F0AE
:1012800082F900BF0837BD4680BD00BF0010024094
:1012900080B588B000AF07F1100300221A605A60D1
:1012A0009A60DA60244B9B69234A43F020039361E0
:1012B000214B9B6903F02003FB60FB681E4B9B697D
:1012C0001D4A43F0040393611B4B9B6903F0040325
:1012D000BB60BB68184B9B69174A43F008039361D6
:1012E000154B9B6903F008037B607B6800224FF479
:1012F000C041124801F0EBFC4FF480533B610023E6
:101300007B610123BB6107F1100319460B4801F013
:1013100043FB4FF4C0433B6101237B610023BB616E
:101320000223FB6107F110031946044801F034FB66
:1013300000BF2037BD4680BD00100240000C0140B8
:1013400080B400AF72B600BFFEE780B588B000AFD2
:10135000F860B9601346FB80FB880233FB83FB8B8C
:1013600018460AF04FFA0346BB61BB69C0221A70E7
:101370000023FB820123BB8247E0FB8ABA68134447
:101380001B78C02B16D1FB8B0133FB83FB8B1946DB
:10139000B8690AF039FBB861BB8ABA691344DB2229
:1013A0001A70BB8A0133BB82BB8ABA691344DC2240
:1013B0001A7024E0FB8ABA6813441B78DB2B16D121
:1013C000FB8B0133FB83FB8B1946B8690AF01CFBCE
:1013D000B861BB8ABA691344DB221A70BB8A013335
:1013E000BB82BB8ABA691344DD221A7007E0FB8A0C
:1013F000BA681A44BB8AB9690B4412781A70FB8A1E
:101400000133FB82BB8A0133BB82FA8AFB889A4292
:10141000B3D3FB8B013BBA691344C0221A70FB683B
:10142000BA691A60FB8B18462037BD4680BD0000A4
:1014300080B483B000AF03460A46FB711346BB710C
:10144000FB79012B06D8BB79032B03D8FB79044920
:10145000BA79CA5400BF0C37BD4680BC704700BF84
:101460006C11002080B500AF1F4B1B780133DBB23D
:1014700003F00703DAB21C4B1A701C4B1B7818469A
:10148000194B1B7819461A4AC30013440B441B78A6
:10149000002B06D001224FF40051164801F017FC32
:1014A00005E000224FF40051124801F010FC0F4BF0
:1014B0005B7818460C4B1B7819460D4AC300134441
:1014C0000B441B78002B06D001224FF480410948C1
:1014D00001F0FDFB05E000224FF48041054801F0DA
:1014E000F6FB00BF80BD00BF681100206C1100201A
:1014F00004000020000C014080B485B000AF154B03
:101500009B69144A43F001039361124B9B6903F0FA
:101510000103BB60BB680F4BDB690E4A43F080538D
:10152000D3610C4BDB6903F080537B607B680A4B13
:101530005B68FB60FB6823F0E063FB60FB6843F0E3
:101540000073FB60044AFB68536000BF1437BD465C
:1015500080BC7047001002400000014080B588B098
:1015600000AF786007F1100300221A605A609A6099
:10157000DA607B681B68284A934249D1274B9B69F4
:10158000264A43F400739361244B9B6903F4007370
:10159000FB60FB68214B9B69204A43F00403936185
:1015A0001E4B9B6903F00403BB60BB6807233B61D0
:1015B00003237B6107F110031946194801F0ECF988
:1015C000184B194A1A60174B00225A60154B00221B
:1015D0009A60144B8022DA60124B4FF480721A61C9
:1015E000104B4FF480625A610E4B00229A610D4BF2
:1015F0000022DA610B4800F0E1FF0346002B01D026
:10160000FFF79EFE7B68074A1A62064A7B685362B0
:1016100000BF2037BD4680BD0024014000100240BD
:1016200000080140500200200800024080B588B048
:1016300000AF786007F1100300221A605A609A60C8
:10164000DA607B681B68154A934223D1144B9B696F
:10165000134A43F008039361114B9B6903F008039D
:10166000FB60FB68C0233B6112237B610323FB61AA
:1016700007F1100319460B4801F08EF9084BDB699E
:10168000074A43F40013D361054BDB6903F40013ED
:10169000BB60BB6800BF2037BD4680BD0054004022
:1016A00000100240000C014080B584B000AF7860AB
:1016B0007B681B680D4A934213D10D4BDB690C4AC2
:1016C00043F00403D3610A4BDB6903F00403FB60BE
:1016D000FB68002200211E2000F039FF1E2000F0D0
:1016E00052FF00BF1037BD4680BD00BF000800405C
:1016F0000010024080B400AFFEE780B400AFFEE708
:1017000080B400AFFEE780B400AFFEE780B400AF66
:10171000FEE780B400AF00BFBD4680BC704780B418
:1017200000AF00BFBD4680BC704780B400AF00BFB3
:10173000BD4680BC704780B500AF00F083F900BFA4
:1017400080BD000080B500AF024800F0F1FF00BF8F
:1017500080BD00BF5002002080B500AF024802F0FB
:101760002EFD00BF80BD00BF101E002080B500AF61
:10177000024804F0EDFE00BF80BD00BFE80200207B
:1017800080B586B004AF03463A60FB710B46BB716F
:1017900000BF4FF0FF332022A0210C4801F056FF7C
:1017A0000346002BF5D1FB799AB2BB799BB24FF07F
:1017B000FF31029101933B6800930123A02103486C
:1017C00001F0DCFC00BF0837BD4680BD940200205C
:1017D00080B586B004AF03463A60FB710B46BB711F
:1017E00021E000BF4FF0FF332022A0211E4801F06E
:1017F0002DFF0346002BF5D1FB799AB24FF0FF3352
:101800000293102301933B6800930123A021164803
:1018100001F0BAFB3B6810333B60FB791033FB717E
:10182000BB79103BBB71BB79102BDAD800BF4FF0EE
:10183000FF332022A0210C4801F008FF0346002BB3
:10184000F5D1FB799AB2BB799BB24FF0FF3102918F
:1018500001933B6800930123A021034801F094FB0E
:1018600000BF0837BD4680BD9402002080B582B01D
:1018700000AF78607A6820210020FFF781FF00BF69
:101880000837BD4680BD80B582B000AF78607A6809
:1018900020210020FFF79CFF00BF0837BD4680BD18
:1018A00080B582B000AF78607A6810210020FFF721
:1018B0008FFF00BF0837BD4680BD80B588B000AF40
:1018C0003B4620220021184609F0BAFF5A233B70FC
:1018D00000237B700223BB7000233B6100237B61EC
:1018E0000023BB613B461846FFF7CDFF00BF203702
:1018F000BD4680BD80B586B000AF7860144A154BF8
:10190000D31A7B617B693B61134B1B68002B02D1AF
:10191000114B124A1A60104B1A687B6813443A69DB
:101920009A4207D209F044FF03460C221A604FF096
:10193000FF3309E0084B1B68FB60074B1A687B68A4
:101940001344054A1360FB6818461837BD4680BD2E
:1019500000500020000400007011002030230020FF
:1019600080B400AF00BFBD4680BC70470C480D4935
:101970000D4A002302E0D458C4500433C4188C42EA
:10198000F9D30A4A0A4C002301E013600432A24250
:10199000FBD3FFF7E5FF09F011FFFFF7D1F970471F
:1019A000000000200402002034C2000804020020CD
:1019B0002C230020FEE7000080B500AF084B1B6819
:1019C000074A43F010031360032000F0B5FD0F2019
:1019D00000F008F8FFF790FD0023184680BD00BF17
:1019E0000020024080B582B000AF7860124B1A68C8
:1019F000124B1B7819464FF47A73B3FBF1F3B2FB29
:101A0000F3F3184600F0CDFD0346002B01D001236F
:101A10000EE07B680F2B0AD8002279684FF0FF3068
:101A200000F095FD064A7B681360002300E0012367
:101A300018460837BD4680BD240000202C00002039
:101A40002800002080B400AF054B1B781A46054BD8
:101A50001B681344034A136000BFBD4680BC704737
:101A60002C0000207411002080B400AF024B1B68D2
:101A70001846BD4680BC70477411002080B584B004
:101A800000AF7860FFF7F0FFB8607B68FB60FB6831
:101A9000B3F1FF3F05D00A4B1B781A46FB6813448D
:101AA000FB6000BFFFF7E0FF0246BB68D31AFA688D
:101AB0009A42F7D800BF00BF1037BD4680BD00BFB7
:101AC0002C00002080B586B000AF78600023FB7545
:101AD00000233B610023BB600023FB607B68002B7D
:101AE00001D10123BEE07B689B68002B7B689B6A69
:101AF000002B09D17B680022DA627B68002283F820
:101B000024207868FFF72AFD786800F0F5FA03468C
:101B1000FB757B689B6A03F01003002B40F09980F3
:101B2000FB7D002B40F095807B689B6A23F48853F3
:101B300023F0020343F002027B689A627B685A68D2
:101B40007B68DB691A437B681B7B5B001343BA68C5
:101B50001343BB607B689B68B3F5807F03D07B68D1
:101B60009B68012B02D14FF4807300E000233A6997
:101B700013433B617B681B7D012B19D17B681B7B69
:101B8000002B09D17B689B69013B5A033B691343D6
:101B900043F400633B610BE07B689B6A43F02002E7
:101BA0007B689A627B68DB6A43F001027B68DA62D9
:101BB0007B681B685B6823F469417B681B683A6932
:101BC0000A435A607B681B689A68284B13407A68FE
:101BD0001268B9680B4393607B689B68B3F5807F9C
:101BE00003D07B689B68012B04D17B681B69013B98
:101BF0001B05FB607B681B68DB6A23F470017B6854
:101C00001B68FA680A43DA627B681B689A68184B9B
:101C10001340BA689A420BD17B680022DA627B6873
:101C20009B6A23F0030343F001027B689A6218E089
:101C30007B689B6A23F0120343F010027B689A6270
:101C40007B68DB6A43F001027B68DA620123FB7583
:101C500007E07B689B6A43F010027B689A6201236D
:101C6000FB75FB7D18461837BD4680BDFDF7E1FFCB
:101C7000FE0E1FFF80B586B000AFF860B9607A60D5
:101C80000023FB75FB681B68644A934204D0FB6821
:101C90001B68634A934206D1604B5B6803F4702370
:101CA000002B40F0B380FB6893F82430012B01D166
:101CB0000223AEE0FB68012283F82420F86800F0DC
:101CC000C1F90346FB75FB7D002B40F09A80FB6851
:101CD0009B6A23F4706323F0010343F48072FB6872
:101CE0009A62FB681B684E4A934205D14B4B5B6876
:101CF00003F47023002B15D1FB689B6A23F4801238
:101D0000FB689A62FB681B685B6803F48063002BC6
:101D100026D0FB689B6A23F4405343F48052FB684F
:101D20009A621DE0FB689B6A43F48012FB689A622A
:101D3000FB681B68394A934204D0FB681B68384A29
:101D400093420DD1354B5B6803F48063002B07D0C1
:101D5000FB689B6A23F4405343F48052FB689A6209
:101D6000FB689B6A03F48053002B06D0FB68DB6A98
:101D700023F00602FB68DA6202E0FB680022DA6206
:101D8000FB68002283F82420FB681B6A254A9A62BC
:101D9000FB681B6A244ADA62FB681B6A234A1A63DF
:101DA000FB681B686FF002021A60FB681B689A6888
:101DB000FB681B6842F480729A60FB68186AFB68D3
:101DC0001B684C331946BA687B6800F051FCFB680D
:101DD0001B689B6803F46023B3F5602F08D1FB6890
:101DE0001B689A68FB681B6842F4A0029A600FE0C7
:101DF000FB681B689A68FB681B6842F480129A6053
:101E000006E0FB68002283F8242001E00123FB7533
:101E1000FB7D18461837BD4680BD00BF0024014039
:101E2000002801407B210008F72100081322000848
:101E300080B483B000AF786000BF0C37BD4680BC73
:101E4000704780B483B000AF786000BF0C37BD46E8
:101E500080BC704780B485B000AF786039600023E3
:101E6000FB730023BB607B6893F82430012B01D106
:101E70000223DCE07B68012283F824203B685B6856
:101E8000062B1CD87B681B68596B3B685A68134645
:101E90009B001344053B1F2202FA03F3DB43194066
:101EA0003B6818683B685A6813469B001344053B1F
:101EB00000FA03F27B681B680A435A633CE03B6804
:101EC0005B680C2B1CD87B681B68196B3B685A68D5
:101ED00013469B001344233B1F2202FA03F3DB4308
:101EE00019403B6818683B685A6813469B001344C6
:101EF000233B00FA03F27B681B680A431A631BE06A
:101F00007B681B68D96A3B685A6813469B00134478
:101F1000413B1F2202FA03F3DB4319403B68186878
:101F20003B685A6813469B001344413B00FA03F296
:101F30007B681B680A43DA623B681B68092B1CD963
:101F40007B681B68D9683B681A6813465B001344BA
:101F50001E3B072202FA03F3DB4319403B689868F3
:101F60003B681A6813465B0013441E3B00FA03F2F9
:101F70007B681B680A43DA6019E07B681B68196993
:101F80003B681A6813465B001344072202FA03F306
:101F9000DB4319403B6898683B681A6813465B004E
:101FA000134400FA03F27B681B680A431A613B681A
:101FB0001B68102B03D03B681B68112B32D17B6848
:101FC0001B681D4A934225D17B681B689B6803F4FC
:101FD0000003002B26D17B681B689A687B681B680E
:101FE00042F400029A603B681B68102B1AD1134B15
:101FF0001B68134AA2FB03239A0C13469B0013444D
:102000005B00BB6002E0BB68013BBB60BB68002BB0
:10201000F9D107E07B689B6A43F020027B689A62F3
:102020000123FB737B68002283F82420FB7B184686
:102030001437BD4680BC70470024014024000020B6
:1020400083DE1B4380B584B000AF78600023FB6063
:102050000023BB607B681B689B6803F00103012BB6
:1020600040D07B681B689A687B681B6842F001025D
:102070009A601F4B1B681F4AA2FB03239B0CBB608B
:1020800002E0BB68013BBB60BB68002BF9D1FFF7E6
:10209000EBFCF8601FE0FFF7E7FC0246FB68D31A91
:1020A000022B18D97B681B689B6803F00103012B86
:1020B00011D07B689B6A43F010027B689A627B6850
:1020C000DB6A43F001027B68DA627B68002283F8F6
:1020D0002420012307E07B681B689B6803F0010351
:1020E000012BD8D1002318461037BD4680BD00BF54
:1020F0002400002083DE1B4380B584B000AF7860ED
:102100000023FB607B681B689B6803F00103012BC5
:102110002ED17B681B689A687B681B6822F00102DD
:102120009A60FFF7A1FCF8601BE0FFF79DFC0246F8
:10213000FB68D31A022B14D97B681B689B6803F0D9
:102140000103012B0DD17B689B6A43F010027B6871
:102150009A627B68DB6A43F001027B68DA620123E2
:1021600007E07B681B689B6803F00103012BDCD050
:10217000002318461037BD4680BD80B584B000AF3F
:1021800078607B685B6AFB60FB689B6A03F05003C6
:10219000002B27D1FB689B6A43F40072FB689A62AC
:1021A000FB681B689B6803F46023B3F5602F15D1AF
:1021B000FB681B7B002B11D1FB689B6A23F48072A8
:1021C000FB689A62FB689B6A03F48053002B05D17D
:1021D000FB689B6A43F00102FB689A62F868FEF7AD
:1021E00063FC04E0FB681B6A1B6B7868984700BFC0
:1021F0001037BD4680BD80B584B000AF78607B6885
:102200005B6AFB60F868FFF713FE00BF1037BD463E
:1022100080BD80B584B000AF78607B685B6AFB608E
:10222000FB689B6A43F04002FB689A62FB68DB6ACA
:1022300043F00402FB68DA62F868FFF702FE00BFB1
:102240001037BD4680BD000090B587B000AF786004
:102250000023FB750023FB607B6893F82430012B7F
:1022600001D1022395E07B68012283F8242078685D
:10227000FFF742FF0346FB75FB7D002B40F0848097
:102280007B689B6A23F4885323F0020343F0020225
:102290007B689A62414B1C68022003F0F5FF0346FD
:1022A000B4FBF3F35B00FB6002E0FB68013BFB6007
:1022B000FB68002BF9D17868FFF7C4FE7B681B68C8
:1022C0009A687B681B6842F008029A60FFF7CCFBB3
:1022D00038611BE0FFF7C8FB02463B69D31A0A2BA3
:1022E00014D97B681B689B6803F00803002B0DD092
:1022F0007B689B6A23F0120343F010027B689A62AA
:102300007B68002283F82420012342E07B681B685D
:102310009B6803F00803002BDCD17B681B689A687C
:102320007B681B6842F004029A60FFF79DFB3861EE
:102330001BE0FFF799FB02463B69D31A0A2B14D91D
:102340007B681B689B6803F00403002B0DD07B683F
:102350009B6A23F0120343F010027B689A627B6849
:10236000002283F82420012313E07B681B689B680C
:1023700003F00403002BDCD17B689B6A23F003038A
:1023800043F001027B689A627B68002283F8242074
:10239000FB7D18461C37BD4690BD00BF24000020C1
:1023A00080B485B000AF78607B6803F00703FB6002
:1023B0000C4BDB68BB60BA684FF6FF031340BB6091
:1023C000FB681A02BB68134343F0BF6343F4003356
:1023D000BB60044ABB68D36000BF1437BD4680BCF5
:1023E000704700BF00ED00E080B400AF044BDB6835
:1023F0001B0A03F007031846BD4680BC704700BFA8
:1024000000ED00E080B483B000AF0346FB7197F9A4
:102410000730002B0BDBFB7903F01F02064997F90D
:1024200007305B09012000FA02F241F8232000BFC7
:102430000C37BD4680BC704700E100E080B483B03B
:1024400000AF03463960FB7197F90730002B0ADBB8
:102450003B68DAB20C4997F907301201D2B20B444B
:1024600083F800230AE03B68DAB20849FB7903F0FD
:102470000F03043B1201D2B20B441A7600BF0C3793
:10248000BD4680BC704700BF00E100E000ED00E009
:1024900080B489B000AFF860B9607A60FB6803F07F
:1024A0000703FB61FB69C3F10703042B28BF042367
:1024B000BB61FB690433062B02D9FB69033B00E0D7
:1024C00000237B614FF0FF32BB6902FA03F3DA436A
:1024D000BB681A407B699A404FF0FF317B6901FA73
:1024E00003F3D9437B680B40134318462437BD469A
:1024F00080BC704780B582B000AF78607B68013BDC
:10250000B3F1807F01D301230FE00A4A7B68013BCE
:1025100053600F214FF0FF30FFF790FF054B002273
:102520009A60044B07221A60002318460837BD46FC
:1025300080BD00BF10E000E080B582B000AF7860E1
:102540007868FFF72DFF00BF0837BD4680BD80B516
:1025500086B000AF0346B9607A60FB7300237B61ED
:10256000FFF742FF78617A68B9687869FFF790FFF2
:10257000024697F90F3011461846FFF75FFF00BF7C
:102580001837BD4680BD80B582B000AF0346FB71F1
:1025900097F907301846FFF735FF00BF0837BD46EB
:1025A00080BD80B582B000AF78607868FFF7A2FF89
:1025B000034618460837BD4680BD000080B485B08C
:1025C00000AF78600023FB607B68002B01D1012302
:1025D00043E07B681B681A46224B1344224AA2FB45
:1025E00003231B099A007B681A647B681F4ADA631D
:1025F0007B68022283F821207B681B681B68FB60D4
:10260000FB6823F47F5323F03003FB607B685A6838
:102610007B689B681A437B68DB681A437B681B698D
:102620001A437B685B691A437B689B691A437B6822
:10263000DB691343FA681343FB607B681B68FA6825
:102640001A607B6800229A637B68012283F821204C
:102650007B68002283F82020002318461437BD46EB
:1026600080BC7047F8FFFDBFCDCCCCCC0000024051
:1026700080B586B000AFF860B9607A603B60002337
:10268000FB75FB6893F82030012B01D102234AE04F
:10269000FB68012283F82020FB6893F82130012B8E
:1026A0003AD1FB68022283F82120FB6800229A635A
:1026B000FB681B681A68FB681B6822F001021A603D
:1026C0003B687A68B968F86800F038F9FB68DB6A3B
:1026D000002B08D0FB681B681A68FB681B6842F077
:1026E0000E021A600FE0FB681B681A68FB681B6823
:1026F00022F004021A60FB681B681A68FB681B68FA
:1027000042F00A021A60FB681B681A68FB681B68C3
:1027100042F001021A6005E0FB68002283F82020E5
:102720000223FB75FB7D18461837BD4680BD0000AF
:1027300080B584B000AF78607B68DB6B1B68FB60A2
:102740007B681B681B68BB607B681B6C04229A401B
:10275000FB681340002B4FD0BB6803F00403002B31
:102760004AD07B681B681B6803F02003002B07D14D
:102770007B681B681A687B681B6822F004021A6079
:102780007B681B68664A934229D07B681B68654A50
:10279000934222D07B681B68634A93421AD07B68BD
:1027A0001B68624A934212D07B681B68604A93425E
:1027B0000AD07B681B685F4A934202D14FF48003C2
:1027C0000EE04FF080630BE04FF4802308E04FF4FD
:1027D000804305E04FF4806302E0402300E00423DF
:1027E000554A53607B68DB6A002B00F094807B685D
:1027F000DB6A786898478EE07B681B6C02229A40FF
:10280000FB681340002B56D0BB6803F00203002B7B
:1028100051D07B681B681B6803F02003002B0BD191
:102820007B681B681A687B681B6822F00A021A60C2
:102830007B68012283F821207B681B68384A934219
:1028400029D07B681B68374A934222D07B681B687B
:10285000354A93421AD07B681B68344A934212D09F
:102860007B681B68324A93420AD07B681B68314AF6
:10287000934202D14FF400130EE04FF000730BE0CF
:102880004FF4003308E04FF4005305E04FF40073B9
:1028900002E0202300E00223274A53607B680022E5
:1028A00083F820207B689B6A002B34D07B689B6A6E
:1028B000786898472FE07B681B6C08229A40FB6879
:1028C0001340002B28D0BB6803F00803002B23D053
:1028D0007B681B681A687B681B6822F00E021A600E
:1028E0007B681A6C7B68DB6B012101FA02F25A608B
:1028F0007B6801229A637B68012283F821207B6830
:10290000002283F820207B681B6B002B04D07B689F
:102910001B6B7868984700BF00BF1037BD4680BD6D
:10292000080002401C000240300002404400024007
:10293000580002406C0002400000024080B485B0A4
:1029400000AFF860B9607A603B60FB681A6CFB68A6
:10295000DB6B012101FA02F25A60FB681B683A68DE
:102960005A60FB685B68102B08D1FB681B687A68AB
:102970009A60FB681B68BA68DA6007E0FB681B684E
:10298000BA689A60FB681B687A68DA6000BF14371F
:10299000BD4680BC7047000080B48BB000AF78604B
:1029A000396000237B6200233B6269E101227B6A7C
:1029B00002FA03F3FB613B681B68FA691340BB61D1
:1029C000BA69FB699A4240F058813B685B689A4A51
:1029D00093425ED0984A934275D8984A934258D011
:1029E000964A93426FD8964A934252D0944A934261
:1029F00069D8944A93424CD0924A934263D8924AFF
:102A0000934246D0904A93425DD8122B2AD8122B7B
:102A100059D801A252F823F0932A00086D2A000821
:102A20007F2A0008C12A0008C72A0008C72A000810
:102A3000C72A0008C72A0008C72A0008C72A0008B2
:102A4000C72A0008C72A0008C72A0008C72A0008A2
:102A5000C72A0008C72A0008C72A0008752A0008E4
:102A6000892A0008794A934213D02CE03B68DB683E
:102A70003B6229E03B68DB6804333B6224E03B684F
:102A8000DB6808333B621FE03B68DB680C333B626A
:102A90001AE03B689B68002B02D104233B6213E0E1
:102AA0003B689B68012B05D108233B627B68FA6970
:102AB0001A6109E008233B627B68FA695A6103E006
:102AC00000233B6200E000BFBB69FF2B01D87B689D
:102AD00001E07B6804337B61BB69FF2B02D87B6A12
:102AE0009B0002E07B6A083B9B003B617B691A68A4
:102AF0000F213B6901FA03F3DB431A40396A3B6952
:102B000001FA03F31A437B691A603B685B6803F0C0
:102B10008053002B00F0B1804D4B9B694C4A43F031
:102B2000010393614A4B9B6903F00103BB60BB68DF
:102B3000484A7B6A9B08023352F82330FB607B6A69
:102B400003F003039B000F2202FA03F3DB43FA684E
:102B50001340FB607B68404A934213D07B683F4A36
:102B600093420DD07B683E4A934207D07B683D4A32
:102B7000934201D1032306E0042304E0022302E090
:102B8000012300E000237A6A02F0030292009340DE
:102B9000FA681343FB602F497B6A9B080233FA688B
:102BA00041F823203B685B6803F48033002B06D098
:102BB0002D4B1A682C49BB6913430B6006E02A4B66
:102BC0001A68BB69DB43284913400B603B685B68AC
:102BD00003F40033002B06D0234B5A682249BB690B
:102BE00013434B6006E0204B5A68BB69DB431E4928
:102BF00013404B603B685B6803F48013002B06D0E6
:102C0000194B9A681849BB6913438B6006E0164B51
:102C10009A68BB69DB43144913408B603B685B686F
:102C200003F40013002B21D00F4BDA680E49BB6967
:102C30001343CB6021E000BF0000321000003110D0
:102C400000002210000021100000121000001110DE
:102C5000001002400000014000080140000C01404B
:102C60000010014000140140000401400B4BDA68E1
:102C7000BB69DB4309491340CB607B6A01337B624C
:102C80003B681A687B6A22FA03F3002B7FF48EAE4E
:102C900000BF00BF2C37BD4680BC70470004014018
:102CA00080B485B000AF78600B467B807B689A6803
:102CB0007B881340002B02D00123FB7301E000232B
:102CC000FB73FB7B18461437BD4680BC704780B44D
:102CD00083B000AF78600B467B8013467B707B78B7
:102CE000002B03D07A887B681A6103E07B881A0482
:102CF0007B681A6100BF0C37BD4680BC704700007E
:102D000080B584B000AF78607B68002B01D10123CF
:102D10002BE17B6893F83D30DBB2002B06D17B685A
:102D2000002283F83C207868FEF780FC7B68242230
:102D300083F83D207B681B681A687B681B6822F05B
:102D400001021A607B681B681A687B681B6842F482
:102D500000421A607B681B681A687B681B6822F453
:102D600000421A6003F094F9F8607B685B68814A5E
:102D7000934207D8FB68804A934294BF0123002303
:102D8000DBB206E0FB687D4A934294BF0123002337
:102D9000DBB2002B01D00123E7E0FB68784AA2FBFD
:102DA00003239B0CBB607B681B685B6823F03F01BF
:102DB0007B681B68BA680A435A607B681B681B6A99
:102DC00023F03F017B685B686A4A934202D8BB6884
:102DD000013309E0BB684FF4967202FB03F3694AC2
:102DE000A2FB03239B0901337A6812680B43136229
:102DF0007B681B68DB6923F44F4222F0FF027B688B
:102E00005B685C498B4219D8FB68591E7B685B681C
:102E10005B00B1FBF3F3591C40F6FC730B40002B35
:102E20000AD0FB68591E7B685B685B00B1FBF3F35B
:102E30000133C3F30B0351E004234FE07B689B682D
:102E4000002B11D1FB68581E7B6859680B465B004C
:102E50000B44B0FBF3F30133C3F30B03002B0CBFA4
:102E600001230023DBB212E0FB68581E7B6859681F
:102E70000B469B000B4499000B44B0FBF3F301336A
:102E8000C3F30B03002B0CBF01230023DBB2002B89
:102E900001D0012322E07B689B68002B0ED1FB68E8
:102EA000581E7B6859680B465B000B44B0FBF3F37C
:102EB0000133C3F30B0343F400430FE0FB68581ED8
:102EC0007B6859680B469B000B4499000B44B0FB90
:102ED000F3F30133C3F30B0343F440437968096808
:102EE0001343CB617B681B681B6823F0C0017B68C0
:102EF000DA697B681B6A1A437B681B680A431A609D
:102F00007B681B689B6823F4034323F0FF037A6804
:102F100011697A68D26811437A6812680B4393602A
:102F20007B681B68DB6823F0FF017B685A697B685C
:102F30009B691A437B681B680A43DA607B681B68DD
:102F40001A687B681B6842F001021A607B680022E5
:102F50001A647B68202283F83D207B6800221A6374
:102F60007B68002283F83E20002318461037BD46B8
:102F700080BD00BFA08601007F841E00FF083D00C9
:102F800083DE1B43D34D621080B588B002AFF8607A
:102F9000084611461A4603467B810B463B81134681
:102FA000FB80FEF761FD7861FB6893F83D30DBB292
:102FB000202B40F0D9807B690093192301226D49B1
:102FC000F86800F0EFFD0346002B01D00223CCE0AF
:102FD000FB6893F83C30012B01D10223C5E0FB686C
:102FE000012283F83C20FB681B681B6803F0010387
:102FF000012B07D0FB681B681A68FB681B6842F04E
:1030000001021A60FB681B681A68FB681B6822F4DF
:1030100000621A60FB68212283F83D20FB68402291
:1030200083F83E20FB6800221A64FB683A6A5A6201
:10303000FB68BA8C5A85FB685B8D9AB2FB681A856F
:10304000FB684D4ADA62F8883A8979897B6901938D
:10305000BB6A00930346F86800F026FC0346002B89
:1030600052D0012381E07A69B96AF86800F070FEF5
:103070000346002B0DD0FB681B6C042B07D1FB68AB
:103080001B681A68FB681B6842F400721A6001230F
:103090006BE0FB685B6A1A78FB681B681A61FB6867
:1030A0005B6A5A1CFB685A62FB681B8D013B9AB233
:1030B000FB681A85FB685B8D9BB2013B9AB2FB688B
:1030C0005A85FB681B685B6903F00403042B1BD162
:1030D000FB681B8D002B17D0FB685B6A1A78FB68B6
:1030E0001B681A61FB685B6A5A1CFB685A62FB68C2
:1030F0001B8D013B9AB2FB681A85FB685B8D9BB206
:10310000013B9AB2FB685A85FB681B8D002BAAD144
:103110007A69B96AF86800F05CFE0346002B0DD0AE
:10312000FB681B6C042B07D1FB681B681A68FB68E3
:103130001B6842F400721A60012316E0FB681B68EA
:103140001A68FB681B6842F400721A60FB68202250
:1031500083F83D20FB68002283F83E20FB680022B4
:1031600083F83C20002300E0022318461837BD46B0
:1031700080BD00BF020010000000FFFF80B58CB0D2
:1031800002AFF860084611461A4603467B810B469B
:103190003B811346FB8000233B62FEF765FC7862AF
:1031A000FB6893F83D30DBB2202B40F044827B6A11
:1031B0000093192301228249F86800F0F3FC0346CA
:1031C000002B01D0022337E2FB6893F83C30012B3F
:1031D00001D1022330E2FB68012283F83C20FB6826
:1031E0001B681B6803F00103012B07D0FB681B68F9
:1031F0001A68FB681B6842F001021A60FB681B68D2
:103200001A68FB681B6822F400621A60FB682222BD
:1032100083F83D20FB68402283F83E20FB680022B3
:103220001A64FB683A6B5A62FB68BA8E5A85FB686F
:103230005B8D9AB2FB681A85FB68624ADA62F8888D
:103240003A8979897B6A0193BB6B00930346F868DE
:1032500000F0C0FB0346002B01D00123ECE1FB682A
:103260001B8D002B13D10023FB61FB681B685B697E
:10327000FB61FB681B689B69FB61FB69FB681B6862
:103280001A68FB681B6842F400721A60C0E1FB68B0
:103290001B8D012B1ED1FB681B681A68FB681B681D
:1032A00022F480621A6072B600BF0023BB61FB6823
:1032B0001B685B69BB61FB681B689B69BB61BB6981
:1032C000FB681B681A68FB681B6842F400721A608E
:1032D00062B635E0FB681B8D022B1ED1FB681B68B4
:1032E0001A68FB681B6842F400621A6072B600BF7D
:1032F00000237B61FB681B685B697B61FB681B6863
:103300009B697B617B69FB681B681A68FB681B68AB
:1033100022F480621A6062B612E0FB681B681A68C9
:10332000FB681B6842F480621A6000233B61FB6803
:103330001B685B693B61FB681B689B693B613B6980
:1033400066E1FB681B8D032B00F21F81FB681B8D60
:10335000012B23D17A6AB96BF86800F07BFD034634
:10336000002B01D0012367E1FB681B681A69FB6829
:103370005B6AD2B21A70FB685B6A5A1CFB685A62BD
:10338000FB681B8D013B9AB2FB681A85FB685B8D5D
:103390009BB2013B9AB2FB685A8539E1FB681B8DF1
:1033A000022B52D17B6A0093BB6B00220649F8685E
:1033B00000F0F8FB0346002B08D001233CE100BFDE
:1033C000020010000000FFFF0400010072B600BF01
:1033D000FB681B681A68FB681B6842F400721A607D
:1033E000FB681B681A69FB685B6AD2B21A70FB68DB
:1033F0005B6A5A1CFB685A62FB681B8D013B9AB2E0
:10340000FB681A85FB685B8D9BB2013B9AB2FB6837
:103410005A8562B600BFFB681B681A69FB685B6A65
:10342000D2B21A70FB685B6A5A1CFB685A62FB686E
:103430001B8D013B9AB2FB681A85FB685B8D9BB2C2
:10344000013B9AB2FB685A85E2E07B6A0093BB6B52
:1034500000227B49F86800F0A5FB0346002B01D051
:103460000123E9E0FB681B681A68FB681B6822F40B
:1034700080621A6072B600BFFB681B681A69FB683D
:103480005B6AD2B21A70FB685B6A5A1CFB685A62AC
:10349000FB681B8D013B9AB2FB681A85FB685B8D4C
:1034A0009BB2013B9AB2FB685A85664B1B68DB08EE
:1034B000654AA2FB03231A0A13469B001344DA0051
:1034C000D31A3B623B6A013B3B623B6A002B18D13B
:1034D000FB6800221A63FB68202283F83D20FB680A
:1034E000002283F83E20FB681B6C43F02002FB683F
:1034F0001A6462B600BFFB68002283F83C200123F7
:103500009AE0FB681B685B6903F00403042BD9D1C4
:10351000FB681B681A68FB681B6842F400721A603B
:10352000FB681B681A69FB685B6AD2B21A70FB6899
:103530005B6A5A1CFB685A62FB681B8D013B9AB29E
:10354000FB681A85FB685B8D9BB2013B9AB2FB68F6
:103550005A8562B600BFFB681B681A69FB685B6A24
:10356000D2B21A70FB685B6A5A1CFB685A62FB682D
:103570001B8D013B9AB2FB681A85FB685B8D9BB281
:10358000013B9AB2FB685A8542E07A6AB96BF868E7
:1035900000F060FC0346002B01D001234CE0FB68E7
:1035A0001B681A69FB685B6AD2B21A70FB685B6AB7
:1035B0005A1CFB685A62FB681B8D013B9AB2FB6880
:1035C0001A85FB685B8D9BB2013B9AB2FB685A85FA
:1035D000FB681B685B6903F00403042B18D1FB68CC
:1035E0001B681A69FB685B6AD2B21A70FB685B6A77
:1035F0005A1CFB685A62FB681B8D013B9AB2FB6840
:103600001A85FB685B8D9BB2013B9AB2FB685A85B9
:10361000FB681B8D002B7FF494AEFB68202283F89F
:103620003D20FB68002283F83E20FB68002283F8DF
:103630003C20002300E0022318462837BD4680BD09
:10364000040001002400002089B5F81480B58AB078
:1036500002AFF8607A603B600B467B81FEF704FAAC
:10366000F8610123BB61FB6893F83D30DBB2202B8E
:1036700040F01181FB690093192301228849F86801
:1036800000F090FA0346002B01D0022304E1FB680E
:1036900093F83C30012B01D10223FDE0FB680122AD
:1036A00083F83C20FB681B681B6803F00103012BB7
:1036B00007D0FB681B681A68FB681B6842F00102B0
:1036C0001A60FB681B681A68FB681B6822F40062BA
:1036D0001A60FB68242283F83D20FB6800221A64EC
:1036E000FB68704ADA62FB681B681A68FB681B6833
:1036F00042F480721A60FB6900933B6800224FF02D
:103700000111F86800F04EFA0346002B0DD0FB685B
:103710001B681B6803F48073B3F5807F03D1FB68DB
:103720004FF400721A640323B6E07B89DBB21A46B9
:10373000FB681B6802F0FE021A61FEF795F9F8615A
:10374000FB681B685B6903F00203022B0CBF0123BB
:103750000023DBB2FB75FB681B685B6903F48063C5
:10376000B3F5806F0CBF01230023DBB2BB7525E0EE
:10377000FEF77AF90246FB69D31A3A689A4202D3F5
:103780003B68002B03D1FB68A02283F83D20FB6837
:103790001B685B6903F00203022B0CBF01230023AB
:1037A000DBB2FB75FB681B685B6903F48063B3F5F0
:1037B000806F0CBF01230023DBB2BB75FB6893F85D
:1037C0003D30DBB2A02B05D0FB7D002B02D1BB7DB1
:1037D000002BCDD0FB68202283F83D20FB681B68BE
:1037E0005B6903F00203022B29D1FB681B681A688E
:1037F000FB681B6842F400721A6000233B61FB689F
:103800001B685B693B61FB681B689B693B613B69AB
:10381000FB690093192301222149F86800F0C2F9DD
:103820000346002B01D0012336E0FB68202283F8F9
:103830003D20FB68002283F83C2000232CE0FB683D
:103840001B681A68FB681B6842F400721A60FB6808
:103850001B686FF480625A61FB690093192301228F
:103860000F49F86800F09EF90346002B01D00123B0
:1038700012E0BB690133BB61BA697B689A42FFF40D
:1038800032AFFB68202283F83D20FB68002283F8DA
:103890003C20012300E0022318462037BD4680BDAE
:1038A000020010000000FFFF80B588B002AFF86092
:1038B000084611461A4603467B810B463B81134658
:1038C000FB80FB681B681A68FB681B6842F4807207
:1038D0001A607B6A00933B6A00224FF00111F8687E
:1038E00000F060F90346002B0DD0FB681B681B68D5
:1038F00003F48073B3F5807F03D1FB684FF400724B
:103900001A6403235FE07B89DBB21A46FB681B68FD
:1039100002F0FE021A617B6A3A6A2D49F86800F0EB
:1039200098F90346002B01D001234CE000237B6172
:10393000FB681B685B697B61FB681B689B697B613B
:103940007B697A6A396AF86800F002FA0346002B4C
:103950000DD0FB681B6C042B07D1FB681B681A6831
:10396000FB681B6842F400721A6001232BE0FB889D
:10397000012B05D13B89DAB2FB681B681A6121E093
:103980003B891B0A9BB2DAB2FB681B681A617A6A30
:10399000396AF86800F0DCF90346002B0DD0FB68AB
:1039A0001B6C042B07D1FB681B681A68FB681B683B
:1039B00042F400721A60012305E03B89DAB2FB6829
:1039C0001B681A61002318461837BD4680BD00BF2A
:1039D0000200010080B588B002AFF86008461146C9
:1039E0001A4603467B810B463B811346FB80FB68EE
:1039F0001B681A68FB681B6842F480621A60FB68E7
:103A00001B681A68FB681B6842F480721A607B6A44
:103A100000933B6A00224FF00111F86800F0C2F8F1
:103A20000346002B0DD0FB681B681B6803F48073F2
:103A3000B3F5807F03D1FB684FF400721A6403234F
:103A4000AAE07B89DBB21A46FB681B6802F0FE0223
:103A50001A617B6A3A6A5249F86800F0FAF803463C
:103A6000002B01D0012397E000237B61FB681B68DA
:103A70005B697B61FB681B689B697B617B697A6A18
:103A8000396AF86800F064F90346002B0DD0FB6832
:103A90001B6C042B07D1FB681B681A68FB681B684A
:103AA00042F400721A60012376E0FB88012B05D1F5
:103AB0003B89DAB2FB681B681A6121E03B891B0A6B
:103AC0009BB2DAB2FB681B681A617A6A396AF868D5
:103AD00000F03EF90346002B0DD0FB681B6C042B55
:103AE00007D1FB681B681A68FB681B6842F4007208
:103AF0001A60012350E03B89DAB2FB681B681A6147
:103B00007A6A396AF86800F023F90346002B0DD071
:103B1000FB681B6C042B07D1FB681B681A68FB68E9
:103B20001B6842F400721A60012335E0FB681B68D1
:103B30001A68FB681B6842F480721A607B6A009303
:103B40003B6A00224FF00111F86800F02BF80346A1
:103B5000002B0DD0FB681B681B6803F48073B3F562
:103B6000807F03D1FB684FF400721A64032313E0D3
:103B70007B89DBB243F00103DAB2FB681B681A6190
:103B80007B6A3A6A0649F86800F063F80346002B3E
:103B900001D0012300E0002318461837BD4680BD40
:103BA0000200010080B584B000AFF860B9603B60EE
:103BB0001346FB7125E03B68B3F1FF3F21D0FDF7D1
:103BC00053FF0246BB69D31A3A689A4202D33B6854
:103BD000002B16D1FB6800221A63FB68202283F8B1
:103BE0003D20FB68002283F83E20FB681B6C43F0FD
:103BF0002002FB681A64FB68002283F83C20012342
:103C000023E0BB681B0CDBB2012B0DD1FB681B68EA
:103C10005B69DA43BB6813409BB2002B0CBF0123E6
:103C20000023DBB21A460CE0FB681B689B69DA4391
:103C3000BB6813409BB2002B0CBF01230023DBB2F7
:103C40001A46FB799A42B6D0002318461037BD4673
:103C500080BD80B584B000AFF860B9607A603B6029
:103C600051E0FB681B685B6903F48063B3F5806F08
:103C700023D1FB681B681A68FB681B6842F400725A
:103C80001A60FB681B686FF480625A61FB6800224F
:103C90001A63FB68202283F83D20FB68002283F82A
:103CA0003E20FB681B6C43F00402FB681A64FB684F
:103CB000002283F83C20012346E07B68B3F1FF3FFC
:103CC00021D0FDF7D1FE02463B68D31A7A689A42AA
:103CD00002D37B68002B16D1FB6800221A63FB68B5
:103CE000202283F83D20FB68002283F83E20FB68F9
:103CF0001B6C43F02002FB681A64FB68002283F807
:103D00003C20012320E0BB681B0CDBB2012B0CD153
:103D1000FB681B685B69DA43BB6813409BB2002BEE
:103D200014BF01230023DBB20BE0FB681B689B6917
:103D3000DA43BB6813409BB2002B14BF012300235E
:103D4000DBB2002B8DD1002318461037BD4680BD55
:103D500080B584B000AFF860B9607A602DE0F86893
:103D600000F0CEF80346002B01D001232DE0BB6804
:103D7000B3F1FF3F21D0FDF777FE02467B68D31AEF
:103D8000BA689A4202D3BB68002B16D1FB680022A6
:103D90001A63FB68202283F83D20FB68002283F829
:103DA0003E20FB681B6C43F02002FB681A64FB6832
:103DB000002283F83C20012307E0FB681B685B6955
:103DC00003F08003802BCAD1002318461037BD466C
:103DD00080BD80B584B000AFF860B9607A602DE036
:103DE000F86800F08DF80346002B01D001232DE088
:103DF000BB68B3F1FF3F21D0FDF736FE02467B687A
:103E0000D31ABA689A4202D3BB68002B16D1FB685A
:103E100000221A63FB68202283F83D20FB68002201
:103E200083F83E20FB681B6C43F02002FB681A6499
:103E3000FB68002283F83C20012307E0FB681B6835
:103E40005B6903F00403042BCAD100231846103722
:103E5000BD4680BD80B584B000AFF860B9607A60BF
:103E600042E0FB681B685B6903F01003102B19D15B
:103E7000FB681B686FF010025A61FB6800221A632E
:103E8000FB68202283F83D20FB68002283F83E2057
:103E9000FB681A6CFB681A64FB68002283F83C20FC
:103EA000012329E0FDF7E0FD02467B68D31ABA68DA
:103EB0009A4202D3BB68002B16D1FB6800221A631A
:103EC000FB68202283F83D20FB68002283F83E2017
:103ED000FB681B6C43F02002FB681A64FB6800223D
:103EE00083F83C20012307E0FB681B685B6903F053
:103EF0004003402BB5D1002318461037BD4680BD86
:103F000080B483B000AF78607B681B685B6903F4A2
:103F10008063B3F5806F1BD17B681B686FF4806290
:103F20005A617B6800221A637B68202283F83D2057
:103F30007B68002283F83E207B681B6C43F0040200
:103F40007B681A647B68002283F83C20012300E030
:103F5000002318460C37BD4680BC7047F0B58BB0C7
:103F600006AF78607B68002B01D10123FDE07B6800
:103F700093F8A932DBB2002B06D17B68002283F8CC
:103F8000A822786807F06AF97B68032283F8A922DF
:103F90007B681B68184602F059FE7B681B683B6013
:103FA0007E686D4606F110040FCC0FC523682B60A8
:103FB000331D0ECB386802F023FE0346002B05D0DC
:103FC0007B68022283F8A9220123CEE07B681B686C
:103FD0000021184602F054FE0023FB734CE0FB7BEB
:103FE00079685A1C13469B001344DB000B440133D1
:103FF00001221A70FB7B79685A1C13469B001344FC
:10400000DB000B44FA7B1A70FA7BFB7B98B2796871
:1040100013469B001344DB000B44363302461A80E0
:10402000FB7B79685A1C13469B001344DB000B444E
:10403000033300221A70FA7B796813469B001344FD
:10404000DB000B44383300221A60FA7B7968134690
:104050009B001344DB000B443C3300221A60FA7BC4
:10406000796813469B001344DB000B444033002265
:104070001A60FB7B0133FB73FA7B7B685B689A42B7
:10408000ADD30023FB7344E0FA7B796813469B00B1
:104090001344DB000B4403F2691300221A70FA7B0D
:1040A000796813469B001344DB000B4403F5B4739B
:1040B000FA7B1A70FA7B796813469B001344DB0085
:1040C0000B4403F26B1300221A70FA7B79681346D3
:1040D0009B001344DB000B4403F5BC7300221A6001
:1040E000FA7B796813469B001344DB000B4403F50D
:1040F000BE7300221A60FA7B796813469B00134452
:10410000DB000B4403F5C07300221A60FB7B013314
:10411000FB73FA7B7B685B689A42B5D37B681B684C
:104120003B607E686D4606F110040FCC0FC5236816
:104130002B60331D0ECB386802F0AEFD0346002B1A
:1041400005D07B68022283F8A92201230DE07B6859
:10415000002283F824207B68012283F8A9227B684F
:104160001B68184605F060FA002318461437BD4650
:10417000F0BD80B582B000AF78607B6893F8A8325C
:10418000012B01D1022316E07B68012283F8A822CB
:104190007B681B68184602F043FD0121786807F030
:1041A000D0FA7B681B68184605F034FA7B68002259
:1041B00083F8A822002318460837BD4680BD80B585
:1041C00088B000AF78607B681B68184605F036FA47
:1041D000034603F40043B3F5004F02D1786800F0C2
:1041E0005FFB7B681B68184605F028FA034603F45A
:1041F0008063B3F5806F12D17B681B68B3F84430DD
:104200009AB27B681B6822F4806292B2A3F84420C1
:10421000786807F09EF80021786800F023F97B6841
:104220001B68184605F00AFA034603F48043B3F509
:10423000804F0BD17B681B68B3F844309AB27B681F
:104240001B6822F4804292B2A3F844207B681B686A
:10425000184605F0F3F9034603F40053B3F5005F85
:104260000BD17B681B68B3F844309AB27B681B683B
:1042700022F4005292B2A3F844207B681B681846CF
:1042800005F0DCF9034603F48053B3F5805F26D1D3
:104290007B681B68B3F840309AB27B681B6822F0D9
:1042A000040292B2A3F840207B681B68B3F8403048
:1042B0009AB27B681B6822F0080292B2A3F84020F1
:1042C000786807F07FF87B681B68B3F844309AB2CF
:1042D0007B681B6822F4805292B2A3F844207B686A
:1042E0001B68184605F0AAF9034603F40063B3F50A
:1042F000006F40F082800023FB7710E07B681B6832
:104300001A46FB7F9B001A44FB7F128892B25B0027
:1043100020333B4423F8142CFB7F0133FB77FB7FD6
:10432000072BEBD97B681B68B3F840309AB27B68E7
:104330001B6842F0010292B2A3F840207B681B6820
:10434000B3F840309AB27B681B6822F0010292B247
:10435000A3F8402000BF7B681B68B3F844309BB2D1
:1043600003F48063002BF6D07B681B68B3F84430FD
:104370009AB27B681B6822F4806292B2A3F8442050
:104380000023FB770FE0FB7F7A6812681146FA7F03
:1043900092000A445B0020333B4433F8143C138002
:1043A000FB7F0133FB77FB7F072BECD97B681B6816
:1043B000B3F840309AB27B681B6842F0080292B2B0
:1043C000A3F840207B681B68B3F844309AB27B683E
:1043D0001B6822F4006292B2A3F844207B681B6839
:1043E000B3F840309AB27B681B6842F0040292B284
:1043F000A3F84020786806F0CBFF7B681B6818465E
:1044000005F01CF9034603F40073B3F5007F0ED1E9
:104410007B681B68B3F844309AB27B681B6822F44F
:10442000007292B2A3F84420786806F084FF7B689B
:104430001B68184605F002F9034603F48073B3F5D0
:10444000807F0BD17B681B68B3F844309AB27B68DD
:104450001B6822F4807292B2A3F8442000BF203778
:10446000BD4680BD80B582B000AF78600B46FB7062
:104470007B6893F8A832012B01D1022313E07B68FB
:10448000012283F8A8227B68FA7883F824207B68CD
:104490001B68FA781146184605F0A9F87B680022D7
:1044A00083F8A822002318460837BD4680BD80B592
:1044B00084B000AF7860084611461A460346FB7088
:1044C0000B463B801346BB700023FB7297F9033009
:1044D000002B0EDAFB7803F007035A1C13469B00EF
:1044E0001344DB007A681344FB60FB6801225A70B6
:1044F0000EE0FB7803F0070213469B001344DB0039
:1045000003F5B4737A681344FB60FB6800225A70A9
:10451000FB7803F00703DAB2FB681A703A88FB688D
:104520001A61FB68BA78DA70FB685B78002B04D0FC
:10453000FB681B789AB2FB68DA81BB78022B02D148
:10454000FB6800221A717B6893F8A832012B01D115
:1045500002230EE07B68012283F8A8227B681B6897
:10456000F968184602F0B8FB7B68002283F8A8229D
:10457000FB7A18461037BD4680BD80B584B000AFC9
:1045800078600B46FB7097F90330002B0EDAFB784E
:1045900003F007035A1C13469B001344DB007A68A0
:1045A0001344FB60FB6801225A700EE0FB7803F0B5
:1045B000070213469B001344DB0003F5B4737A68CB
:1045C0001344FB60FB6800225A70FB7803F007037A
:1045D000DAB2FB681A707B6893F8A832012B01D11C
:1045E00002230EE07B68012283F8A8227B681B6807
:1045F000F968184602F0DAFE7B68002283F8A822E8
:10460000002318461037BD4680BD80B586B000AF88
:10461000F8607A603B600B46FB72FB7A03F007029E
:1046200013469B001344DB0003F5B473FA6813448C
:104630007B617B697A685A617B693A689A617B69B8
:104640000022DA617B6900225A70FB7A03F00703CB
:10465000DAB27B691A70FB7A03F00703002B06D1EC
:10466000FB681B687969184603F08CF805E0FB6865
:104670001B687969184603F085F800231846183737
:10468000BD4680BD80B483B000AF78600B46FB7040
:10469000FB7803F00702796813469B001344DB00A4
:1046A0000B4403F5C2731B6818460C37BD4680BC2B
:1046B000704780B586B000AFF8607A603B600B460B
:1046C000FB72FB7A03F007035A1C13469B0013444A
:1046D000DB00FA6813447B617B697A685A617B6905
:1046E0003A689A617B69012283F824207B693A68E1
:1046F0001A627B690022DA617B6901225A70FB7AB7
:1047000003F00703DAB27B691A70FB7A03F0070340
:10471000002B06D1FB681B687969184603F032F854
:1047200005E0FB681B687969184603F02BF8002345
:1047300018461837BD4680BD80B584B000AF78609C
:104740000B46FB70FB7803F007027B685B689A42BC
:1047500001D901234CE097F90330002B0EDAFB78E6
:1047600003F007035A1C13469B001344DB007A68CE
:104770001344FB60FB6801225A700CE0FA78134680
:104780009B001344DB0003F5B4737A681344FB60A9
:10479000FB6800225A70FB6801229A70FB7803F0D4
:1047A0000703DAB2FB681A707B6893F8A832012B12
:1047B00001D102231CE07B68012283F8A8227B68D8
:1047C0001B68F968184604F015FEFB7803F0070330
:1047D000002B08D17B681A687B6803F52C73194697
:1047E000104604F03AFF7B68002283F8A8220023D9
:1047F00018461037BD4680BD80B584B000AF7860E4
:104800000B46FB70FB7803F00F027B685B689A42F3
:1048100001D9012340E097F90330002B0EDAFB7831
:1048200003F007035A1C13469B001344DB007A680D
:104830001344FB60FB6801225A700EE0FB7803F022
:10484000070213469B001344DB0003F5B4737A6838
:104850001344FB60FB6800225A70FB6800229A70C8
:10486000FB7803F00703DAB2FB681A707B6893F8F1
:10487000A832012B01D102230EE07B68012283F8CC
:10488000A8227B681B68F968184604F003FE7B6861
:10489000002283F8A822002318461037BD4680BDA9
:1048A00080B58EB000AF7860ECE27B681B68B3F82F
:1048B0004430FB85FB8DDBB203F00F0387F82D300E
:1048C00097F82D30002B40F06181FB8D03F0100331
:1048D000002B52D17B681B681B889BB223F4E143F9
:1048E00023F07003FB817B681A68FB896FEA4343FE
:1048F0006FEA53439BB213807B6828337B627B68EB
:104900001B68B3F850309BB21A467B6A1B78DB00F9
:10491000134402335B007A681268134403F5806322
:104920001B88C3F309027B6ADA617B6A5A697B6A76
:10493000DB691A447B6A5A610021786806F0E1FC61
:104940007B6893F82430DBB2002B00F09B827B6AFB
:104950009B69002B40F096827B6893F82430DBB291
:1049600063F07F03DAB27B681B6892B2A3F84C2035
:104970007B68002283F8242084E27B6803F5B4730B
:104980007B627B681B681B887B857B8D03F40063DF
:10499000002B34D07B681B68B3F850309BB21A46AA
:1049A0007B6A1B78DB00134406335B007A6812686D
:1049B000134403F580631B88C3F309027B6ADA6141
:1049C0007B6818687B6803F52C717B6ADA887B6AE0
:1049D000DB699BB204F091FE7B681B681B889AB26E
:1049E00040F68F7313403B827B681B683A8A42F023
:1049F000800292B21A80786806F056FC42E2B7F95B
:104A00002A30002B80F23E827B681B681B889AB29A
:104A100040F68F731340BB837B681B68BA8B42F0F0
:104A2000800292B21A807B681B68B3F850309BB248
:104A30001A467B6A1B78DB00134406335B007A68F6
:104A40001268134403F580631B88C3F309027B6A71
:104A5000DA617B6ADB69002B19D07B6A5B69002B0A
:104A600015D07B6818687B6A59697B6ADA887B6A2B
:104A7000DB699BB204F041FE7B6A5A697B6ADB69A1
:104A80001A447B6A5A610021786806F01FFC7B6833
:104A90001B681B889BB203F40063002B40F0F2817B
:104AA0007B681B68BB617B681B68B3F850309BB2A6
:104AB0001A46BB691344BB61BB6903F20C437B61BB
:104AC0007B6A1B69002B12D17B691B889BB223F484
:104AD000F8439AB27B691A807B691B889BB26FEAA4
:104AE00043436FEA53439AB27B691A802FE07B6A93
:104AF0001B693E2B13D87B6A1B695B083B637B6A8F
:104B00001B6903F00103002B02D03B6B01333B63B5
:104B10003B6B9BB29B029AB27B691A8017E07B6A5F
:104B20001B695B093B637B6A1B6903F01F03002B56
:104B300002D13B6B013B3B633B6B9BB29B029BB245
:104B40006FEA43436FEA53439AB27B691A807B68EA
:104B50001B681B889BB223F4804323F070037B8285
:104B60007B8A83F480537B827B8A83F400537B822D
:104B70007B681A687B8A43F07F4343F47F0343F4E6
:104B8000004343F080039BB213807BE17B681B688A
:104B90001A4697F82D309B0013441B887B85B7F984
:104BA0002A30002B80F2EA807B681B681A4697F84F
:104BB0002D309B0013441B889AB240F68F7313402C
:104BC0003B857B681B681A4697F82D309B00134481
:104BD0003A8D42F0800292B21A8097F82D20134647
:104BE0009B001344DB0003F5B4737A6813447B62C3
:104BF0007B6A1B7B002B22D17B681B68B3F850308B
:104C00009BB21A467B6A1B78DB00134406335B00B9
:104C10007A681268134403F580631B88C3F30903A1
:104C2000FB86FB8E002B00F087807B6818687B6A10
:104C300059697B6ADA88FB8E04F05FFD7CE07B6A51
:104C4000DB78022B08D17B8D1A46796A786800F0F0
:104C500027F90346FB866FE07B681B681A467B6A70
:104C60001B789B0013441B889BB223F4E04323F082
:104C700070037B847B681B681A467B6A1B789B00E9
:104C80001A447B8C43F07F4343F47F0343F4004397
:104C900043F0C0039BB213807B681B681A467B6A93
:104CA0001B789B0013441B889BB203F48043002BAA
:104CB00021D07B681B68B3F850309BB21A467B6AE0
:104CC0001B78DB00134402335B007A6812681344DC
:104CD00003F580631B88C3F30903FB86FB8E002B5F
:104CE0002AD07B6818687B6A59697B6A1A89FB8EAF
:104CF00004F003FD20E07B681B68B3F850309BB2E2
:104D00001A467B6A1B78DB00134406335B007A6823
:104D10001268134403F580631B88C3F30903FB8601
:104D2000FB8E002B08D07B6818687B6A59697B6A08
:104D30005A89FB8E04F0E1FC7B6ADA69FB8E1A4427
:104D40007B6ADA617B6A5A69FB8E1A447B6A5A6114
:104D50007B6A9B69002B04D0FA8E7B6A1B699A429E
:104D600006D27B6A1B781946786806F0AFFA05E030
:104D70007B681B68796A184602F004FD7B8D03F09E
:104D80008003002B7ED097F82D305A1C13469B00D1
:104D90001344DB007A6813447B627B681B681A4605
:104DA00097F82D309B0013441B889BB223F4E143FA
:104DB00023F070033B847B681B681A4697F82D30FC
:104DC0009B001A443B8C6FEA43436FEA53439BB208
:104DD00013807B6ADB78032B0CD07B6ADB78002B9B
:104DE00008D07B6ADB78022B46D17B8D03F480737D
:104DF000002B41D17B681B68B3F850309BB21A4638
:104E00007B6A1B78DB00134402335B007A6812680C
:104E1000134403F580631B88C3F30903FB837B6A98
:104E20009A69FB8B9A4206D97B6A9A69FB8BD21AE4
:104E30007B6A9A6102E07B6A00229A617B6A9B69C5
:104E4000002B06D17B6A1B781946786806F059FA60
:104E500018E07B6A5A69FB8B1A447B6A5A617B6A49
:104E6000DA69FB8B1A447B6ADA617B681B68796AB2
:104E7000184602F087FC05E07B8D1A46796A78684F
:104E800000F01BF97B681B68B3F844309BB21BB27F
:104E9000002BFFF60AAD002318463837BD4680BD0B
:104EA00080B588B000AFF860B9601346FB80FB881E
:104EB00003F48043002B7ED0FB681B68B3F85030AE
:104EC0009BB21A46BB681B78DB00134402335B00BD
:104ED000FA681268134403F580631B88C3F309035F
:104EE0007B83BB689A697B8B9A4206D3BB689A69BD
:104EF0007B8BD21ABB689A6102E0BB6800229A6180
:104F0000BB689B69002B23D1FB681B681A46BB68F2
:104F10001B789B0013441B889BB223F4804323F02F
:104F200070033B833B8B83F400533B83FB681B681C
:104F30001A46BB681B789B001A443B8B43F07F43A7
:104F400043F47F0343F4004343F080039BB2138098
:104F5000FB8803F04003002B1FD0FB681B681A4638
:104F6000BB681B789B0013441B889BB223F4E0436F
:104F700023F07003FB82FB681B681A46BB681B7832
:104F80009B001A44FB8A43F07F4343F47F0343F4BE
:104F9000004343F0C0039BB213807B8B002B00F0D7
:104FA0008780FB681868BB685969BB681A897B8B66
:104FB00004F0A3FB7CE0FB681B68B3F850309BB2A5
:104FC0001A46BB681B78DB00134406335B00FA68A3
:104FD0001268134403F580631B88C3F309037B83C2
:104FE000BB689A697B8B9A4206D3BB689A697B8BB4
:104FF000D21ABB689A6102E0BB6800229A61BB6862
:105000009B69002B23D1FB681B681A46BB681B7881
:105010009B0013441B889BB223F4804323F070034E
:10502000FB83FB8B83F40053FB83FB681B681A46EE
:10503000BB681B789B001A44FB8B43F07F4343F40F
:105040007F0343F4004343F080039BB21380FB884B
:1050500003F04003002B1FD1FB681B681A46BB6896
:105060001B789B0013441B889BB223F4E04323F07E
:105070007003BB83FB681B681A46BB681B789B00E8
:105080001A44BB8B43F07F4343F47F0343F4004354
:1050900043F0C0039BB213807B8B002B08D0FB68CE
:1050A0001868BB685969BB685A897B8B04F025FB7B
:1050B0007B8B18462037BD4680BD80B5A2B000AFBF
:1050C000F860B9601346FB80FB8803F04003002BB7
:1050D00000F0C781FB681B68B3F850309BB21A46DA
:1050E000BB681B78DB00134402335B00FA6812686C
:1050F000134403F580631B88C3F30903A7F84E30FC
:10510000BB689A69B7F84E309A4207D9BB689A696A
:10511000B7F84E30D21ABB689A6102E0BB68002231
:105120009A61BB689B69002B40F0B980BB685B78D3
:10513000002B26D1FB681B68BB62FB681B68B3F8B9
:1051400050309BB21A46BB6A1344BB62BB681B78E3
:105150001A01BB6A134403F204437B627B6A1B8817
:105160009BB223F4F8439AB27B6A1A807B6A1B884D
:105170009BB26FEA43436FEA53439AB27B6A1A8049
:105180001AE0BB685B78012B16D1FB681B683B6398
:10519000FB681B68B3F850309BB21A463B6B134454
:1051A0003B63BB681B781A013B6B134403F2044357
:1051B000FB62FB6A00221A80FB681B683B62BB68CB
:1051C0005B78002B26D1FB681B68BB61FB681B6802
:1051D000B3F850309BB21A46BB691344BB61BB683D
:1051E0001B781A01BB69134403F20C437B617B6992
:1051F0001B889BB223F4F8439AB27B691A807B69BF
:105200001B889BB26FEA43436FEA53439AB27B69B0
:105210001A8017E0BB685B78012B13D1FB681B6811
:10522000B3F850309BB21A463B6A13443B62BB68EA
:105230001B781A013B6A134403F20C43FB61FB69C0
:1052400000221A80BB681B781946F86806F059F8E6
:10525000FB8803F48043002B00F0D482FB681B68BA
:105260001A46BB681B789B0013441B889BB223F42F
:10527000E04323F070037B82FB681B681A46BB681F
:105280001B789B001A447B8A43F07F4343F47F03DF
:1052900043F4404343F080039BB21380B2E2FB88A7
:1052A00003F48043002B21D0FB681B681A46BB68BF
:1052B0001B789B0013441B889BB223F4E04323F02C
:1052C0007003A7F84430FB681B681A46BB681B785C
:1052D0009B001A44B7F8443043F07F4343F47F0304
:1052E00043F4404343F080039BB21380BB6893F8C0
:1052F0002430012B40F08682BB685A69B7F84E30E3
:105300001A44BB685A61BB68DA69B7F84E301A4470
:10531000BB68DA61BB681A6ABB681B699A4209D329
:10532000BB681B693B65BB681A6A3B6DD21ABB68D8
:105330001A6215E0BB681B6A002B07D1B7F84E3024
:105340003B65BB68002283F8242009E0BB6800228B
:1053500083F82420BB681B6A3B65BB6800221A6285
:10536000BB685B78002B55D1FB681B68BB63FB688F
:105370001B68B3F850309BB21A46BB6B1344BB6337
:10538000BB681B781A01BB6B134403F204437B63B5
:105390003B6D002B12D17B6B1B889BB223F4F8432F
:1053A0009AB27B6B1A807B6B1B889BB26FEA43437C
:1053B0006FEA53439AB27B6B1A8047E03B6D3E2BFA
:1053C00011D83B6D5B08BB643B6D03F00103002B00
:1053D00002D0BB6C0133BB64BB6C9BB29B029AB224
:1053E0007B6B1A8032E03B6D5B09BB643B6D03F065
:1053F0001F03002B02D1BB6C013BBB64BB6C9BB297
:105400009B029BB26FEA43436FEA53439AB27B6BB2
:105410001A801BE0BB685B78012B17D1FB681B6807
:105420003B64FB681B68B3F850309BB21A463B6C78
:1054300013443B64BB681B781A013B6C134403F2B2
:105440000443FB633B6D9AB2FB6B1A80FB681868E0
:10545000BB685969BB681A893B6D9BB204F008F9B7
:10546000D0E1FB681B68B3F850309BB21A46BB68AA
:105470001B78DB00134406335B00FA6812681344A0
:1054800003F580631B88C3F30903A7F84E30BB689C
:105490009A69B7F84E309A4207D3BB689A69B7F851
:1054A0004E30D21ABB689A6102E0BB6800229A6152
:1054B000BB689B69002B40F0C480BB685B78002B05
:1054C00026D1FB681B68FB66FB681B68B3F850308D
:1054D0009BB21A46FB6E1344FB66BB681B781A012D
:1054E000FB6E134403F20443BB66BB6E1B889BB286
:1054F00023F4F8439AB2BB6E1A80BB6E1B889BB232
:105500006FEA43436FEA53439AB2BB6E1A801AE0C4
:10551000BB685B78012B16D1FB681B687B67FB6857
:105520001B68B3F850309BB21A467B6F13447B67FD
:10553000BB681B781A017B6F134403F204433B677B
:105540003B6F00221A80FB681B68BB67BB685B78F7
:10555000002B2FD1FB681B68C7F88030FB681B68E5
:10556000B3F850309BB21A46D7F880301344C7F8CE
:105570008030BB681B781A01D7F88030134403F2DF
:105580000C43C7F88430D7F884301B889BB223F4CF
:10559000F8439AB2D7F884301A80D7F884301B8841
:1055A0009BB26FEA43436FEA53439AB2D7F8843011
:1055B0001A8017E0BB685B78012B13D1FB681B686E
:1055C000B3F850309BB21A46BB6F1344BB67BB683D
:1055D0001B781A01BB6F134403F20C43FB67FB6F8C
:1055E00000221A80BB681B781946F86805F089FE0E
:1055F000FB8803F48043002B40F00481FB681B68A8
:105600001A46BB681B789B0013441B889BB223F48B
:10561000E04323F07003A7F84630FB681B681A4686
:10562000BB681B789B001A44B7F8463043F07F43B1
:1056300043F47F0343F4404343F080039BB2138061
:10564000E0E0FB8803F48043002B21D1FB681B685A
:105650001A46BB681B789B0013441B889BB223F43B
:10566000E04323F07003A7F84C30FB681B681A4630
:10567000BB681B789B001A44B7F84C3043F07F435B
:1056800043F47F0343F4404343F080039BB2138011
:10569000BB6893F82430012B40F0B480BB685A6992
:1056A000B7F84E301A44BB685A61BB68DA69B7F87C
:1056B0004E301A44BB68DA61BB681A6ABB681B6962
:1056C0009A4209D3BB681B693B65BB681A6A3B6D8C
:1056D000D21ABB681A6215E0BB681B6A002B07D19F
:1056E000B7F84E303B65BB68002283F8242009E000
:1056F000BB681B6A3B65BB6800221A62BB6800225C
:1057000083F82420FB681B687B66BB685B78002BF2
:1057100055D1FB681B68FB65FB681B68B3F850300C
:105720009BB21A46FB6D1344FB65BB681B781A01DC
:10573000FB6D134403F20C43BB653B6D002B12D190
:10574000BB6D1B889BB223F4F8439AB2BB6D1A80E1
:10575000BB6D1B889BB26FEA43436FEA53439AB217
:10576000BB6D1A8044E03B6D3E2B11D83B6D5B084E
:105770007B653B6D03F00103002B02D07B6D013391
:105780007B657B6D9BB29B029AB2BB6D1A802FE04A
:105790003B6D5B097B653B6D03F01F03002B02D162
:1057A0007B6D013B7B657B6D9BB29B029BB26FEA7D
:1057B00043436FEA53439AB2BB6D1A8018E0BB684B
:1057C0005B78012B14D1FB681B68B3F850309BB297
:1057D0001A467B6E13447B66BB681B781A017B6E8E
:1057E000134403F20C433B663B6D9AB23B6E1A8046
:1057F000FB681868BB685969BB685A893B6D9BB2E6
:1058000003F036FFFB681B681A46BB681B789B00D9
:1058100013441B889BB223F4E04323F040033B82F4
:105820003B8A83F010033B823B8A83F020033B8258
:10583000FB681B681A46BB681B789B001A443B8AAE
:1058400043F07F4343F47F0343F4004343F080037A
:105850009BB21380002318468837BD4680BD80B4B4
:1058600087B000AFF8607B600B467B8113463B81BD
:105870007B8903F080039BB2002B0BD07B8903F064
:1058800007035A1C13469B001344DB00FA681344B9
:105890007B6109E07A8913469B001344DB0003F522
:1058A000B473FA6813447B613B89002B07D17B6991
:1058B00000221A737B689AB27B69DA800BE07B69FD
:1058C00001221A737B689AB27B691A817B681B0C70
:1058D0009AB27B695A81002318461C37BD4680BCAA
:1058E0007047000080B586B000AF78607B68002B01
:1058F00001D1012372E27B681B6803F00103002BD6
:1059000000F08780924B5B6803F00C03042B0CD0F3
:105910008F4B5B6803F00C03082B12D18C4B5B6838
:1059200003F48033B3F5803F0BD1894B1B6803F43C
:105930000033002B6CD07B685B68002B68D101239F
:105940004CE27B685B68B3F5803F06D1804B1B68F7
:105950007F4A43F4803313602EE07B685B68002B42
:105960000CD17B4B1B687A4A23F480331360784B4D
:105970001B68774A23F4802313601DE07B685B6813
:10598000B3F5A02F0CD1724B1B68714A43F48023EE
:1059900013606F4B1B686E4A43F4803313600BE057
:1059A0006B4B1B686A4A23F480331360684B1B6897
:1059B000674A23F4802313607B685B68002B13D055
:1059C000FCF752F8386108E0FCF74EF802463B69F4
:1059D000D31A642B01D9032300E25D4B1B6803F447
:1059E0000033002BF0D014E0FCF73EF8386108E0FB
:1059F000FCF73AF802463B69D31A642B01D903231A
:105A0000ECE1534B1B6803F40033002BF0D100E0B2
:105A100000BF7B681B6803F00203002B63D04C4B74
:105A20005B6803F00C03002B0BD0494B5B6803F061
:105A30000C03082B1CD1464B5B6803F48033002B0E
:105A400016D1434B1B6803F00203002B05D07B6883
:105A50001B69012B01D00123C0E13D4B1B6823F0E2
:105A6000F8027B685B69DB00394913430B603AE05D
:105A70007B681B69002B20D0364B01221A60FBF794
:105A8000F3FF386108E0FBF7EFFF02463B69D31AEA
:105A9000022B01D90323A1E12D4B1B6803F0020364
:105AA000002BF0D02A4B1B6823F0F8027B685B695F
:105AB000DB00274913430B6015E0264B00221A60D8
:105AC000FBF7D2FF386108E0FBF7CEFF02463B69E7
:105AD000D31A022B01D9032380E11D4B1B6803F06D
